{
  "_format": "hh-sol-artifact-1",
  "contractName": "RickdiculusStreams",
  "sourceName": "contracts/RickdiculusStreams.sol",
  "abi": [
    {
      "inputs": [
        {
          "internalType": "contract ISuperTokenFactory",
          "name": "factory",
          "type": "address"
        },
        {
          "internalType": "contract ISuperfluid",
          "name": "host",
          "type": "address"
        }
      ],
      "stateMutability": "nonpayable",
      "type": "constructor"
    },
    {
      "inputs": [],
      "name": "NotApproved",
      "type": "error"
    },
    {
      "inputs": [],
      "name": "NotTokenOwner",
      "type": "error"
    },
    {
      "anonymous": false,
      "inputs": [
        {
          "indexed": false,
          "internalType": "address",
          "name": "receiver",
          "type": "address"
        },
        {
          "indexed": true,
          "internalType": "address",
          "name": "erc721Token",
          "type": "address"
        },
        {
          "indexed": true,
          "internalType": "uint256",
          "name": "tokenId",
          "type": "uint256"
        },
        {
          "indexed": true,
          "internalType": "address",
          "name": "superFractionalized",
          "type": "address"
        },
        {
          "indexed": false,
          "internalType": "uint256",
          "name": "initialSupply",
          "type": "uint256"
        }
      ],
      "name": "Fractionalized",
      "type": "event"
    },
    {
      "inputs": [
        {
          "internalType": "address",
          "name": "",
          "type": "address"
        }
      ],
      "name": "LoanAgreements",
      "outputs": [
        {
          "internalType": "enum RickdiculusStreams.LoanAgreementState",
          "name": "agreementState",
          "type": "uint8"
        },
        {
          "internalType": "uint256",
          "name": "tokenId",
          "type": "uint256"
        },
        {
          "internalType": "address",
          "name": "borrower",
          "type": "address"
        },
        {
          "internalType": "address",
          "name": "delegator",
          "type": "address"
        },
        {
          "internalType": "uint256",
          "name": "agreementPeriod",
          "type": "uint256"
        },
        {
          "internalType": "uint256",
          "name": "amount",
          "type": "uint256"
        },
        {
          "internalType": "address",
          "name": "tokenAddress",
          "type": "address"
        },
        {
          "internalType": "address",
          "name": "ricksAddress",
          "type": "address"
        }
      ],
      "stateMutability": "view",
      "type": "function"
    },
    {
      "inputs": [
        {
          "internalType": "contract ISuperToken",
          "name": "_superToken",
          "type": "address"
        },
        {
          "internalType": "address",
          "name": "_agreementClass",
          "type": "address"
        },
        {
          "internalType": "bytes32",
          "name": "",
          "type": "bytes32"
        },
        {
          "internalType": "bytes",
          "name": "",
          "type": "bytes"
        },
        {
          "internalType": "bytes",
          "name": "",
          "type": "bytes"
        },
        {
          "internalType": "bytes",
          "name": "_ctx",
          "type": "bytes"
        }
      ],
      "name": "afterAgreementCreated",
      "outputs": [
        {
          "internalType": "bytes",
          "name": "newCtx",
          "type": "bytes"
        }
      ],
      "stateMutability": "nonpayable",
      "type": "function"
    },
    {
      "inputs": [
        {
          "internalType": "contract ISuperToken",
          "name": "_superToken",
          "type": "address"
        },
        {
          "internalType": "address",
          "name": "_agreementClass",
          "type": "address"
        },
        {
          "internalType": "bytes32",
          "name": "",
          "type": "bytes32"
        },
        {
          "internalType": "bytes",
          "name": "",
          "type": "bytes"
        },
        {
          "internalType": "bytes",
          "name": "",
          "type": "bytes"
        },
        {
          "internalType": "bytes",
          "name": "_ctx",
          "type": "bytes"
        }
      ],
      "name": "afterAgreementTerminated",
      "outputs": [
        {
          "internalType": "bytes",
          "name": "newCtx",
          "type": "bytes"
        }
      ],
      "stateMutability": "nonpayable",
      "type": "function"
    },
    {
      "inputs": [
        {
          "internalType": "contract ISuperToken",
          "name": "_superToken",
          "type": "address"
        },
        {
          "internalType": "address",
          "name": "_agreementClass",
          "type": "address"
        },
        {
          "internalType": "bytes32",
          "name": "",
          "type": "bytes32"
        },
        {
          "internalType": "bytes",
          "name": "agreementData",
          "type": "bytes"
        },
        {
          "internalType": "bytes",
          "name": "",
          "type": "bytes"
        },
        {
          "internalType": "bytes",
          "name": "_ctx",
          "type": "bytes"
        }
      ],
      "name": "afterAgreementUpdated",
      "outputs": [
        {
          "internalType": "bytes",
          "name": "newCtx",
          "type": "bytes"
        }
      ],
      "stateMutability": "nonpayable",
      "type": "function"
    },
    {
      "inputs": [
        {
          "internalType": "contract ISuperToken",
          "name": "",
          "type": "address"
        },
        {
          "internalType": "address",
          "name": "",
          "type": "address"
        },
        {
          "internalType": "bytes32",
          "name": "",
          "type": "bytes32"
        },
        {
          "internalType": "bytes",
          "name": "",
          "type": "bytes"
        },
        {
          "internalType": "bytes",
          "name": "",
          "type": "bytes"
        }
      ],
      "name": "beforeAgreementCreated",
      "outputs": [
        {
          "internalType": "bytes",
          "name": "",
          "type": "bytes"
        }
      ],
      "stateMutability": "view",
      "type": "function"
    },
    {
      "inputs": [
        {
          "internalType": "contract ISuperToken",
          "name": "",
          "type": "address"
        },
        {
          "internalType": "address",
          "name": "",
          "type": "address"
        },
        {
          "internalType": "bytes32",
          "name": "",
          "type": "bytes32"
        },
        {
          "internalType": "bytes",
          "name": "",
          "type": "bytes"
        },
        {
          "internalType": "bytes",
          "name": "",
          "type": "bytes"
        }
      ],
      "name": "beforeAgreementTerminated",
      "outputs": [
        {
          "internalType": "bytes",
          "name": "",
          "type": "bytes"
        }
      ],
      "stateMutability": "view",
      "type": "function"
    },
    {
      "inputs": [
        {
          "internalType": "contract ISuperToken",
          "name": "",
          "type": "address"
        },
        {
          "internalType": "address",
          "name": "",
          "type": "address"
        },
        {
          "internalType": "bytes32",
          "name": "",
          "type": "bytes32"
        },
        {
          "internalType": "bytes",
          "name": "",
          "type": "bytes"
        },
        {
          "internalType": "bytes",
          "name": "",
          "type": "bytes"
        }
      ],
      "name": "beforeAgreementUpdated",
      "outputs": [
        {
          "internalType": "bytes",
          "name": "",
          "type": "bytes"
        }
      ],
      "stateMutability": "view",
      "type": "function"
    },
    {
      "inputs": [],
      "name": "cfaV1",
      "outputs": [
        {
          "internalType": "contract ISuperfluid",
          "name": "host",
          "type": "address"
        },
        {
          "internalType": "contract IConstantFlowAgreementV1",
          "name": "cfa",
          "type": "address"
        }
      ],
      "stateMutability": "view",
      "type": "function"
    },
    {
      "inputs": [
        {
          "internalType": "address",
          "name": "_tokenAddress",
          "type": "address"
        },
        {
          "internalType": "string",
          "name": "_name",
          "type": "string"
        },
        {
          "internalType": "string",
          "name": "_symbol",
          "type": "string"
        },
        {
          "internalType": "uint256",
          "name": "_tokenId",
          "type": "uint256"
        },
        {
          "internalType": "uint256",
          "name": "_initialSupply",
          "type": "uint256"
        },
        {
          "internalType": "uint256",
          "name": "_amount",
          "type": "uint256"
        }
      ],
      "name": "createLoanAgreement",
      "outputs": [],
      "stateMutability": "nonpayable",
      "type": "function"
    },
    {
      "inputs": [
        {
          "internalType": "uint256",
          "name": "_amount",
          "type": "uint256"
        },
        {
          "internalType": "address",
          "name": "_ricksAddress",
          "type": "address"
        }
      ],
      "name": "delegate",
      "outputs": [],
      "stateMutability": "nonpayable",
      "type": "function"
    },
    {
      "inputs": [],
      "name": "fetchAllAgreements",
      "outputs": [
        {
          "components": [
            {
              "internalType": "enum RickdiculusStreams.LoanAgreementState",
              "name": "agreementState",
              "type": "uint8"
            },
            {
              "internalType": "uint256",
              "name": "tokenId",
              "type": "uint256"
            },
            {
              "internalType": "address",
              "name": "borrower",
              "type": "address"
            },
            {
              "internalType": "address",
              "name": "delegator",
              "type": "address"
            },
            {
              "internalType": "uint256",
              "name": "agreementPeriod",
              "type": "uint256"
            },
            {
              "internalType": "uint256",
              "name": "amount",
              "type": "uint256"
            },
            {
              "internalType": "address",
              "name": "tokenAddress",
              "type": "address"
            },
            {
              "internalType": "address",
              "name": "ricksAddress",
              "type": "address"
            }
          ],
          "internalType": "struct RickdiculusStreams.LoanAgreement[]",
          "name": "",
          "type": "tuple[]"
        }
      ],
      "stateMutability": "view",
      "type": "function"
    },
    {
      "inputs": [
        {
          "internalType": "address",
          "name": "_address",
          "type": "address"
        }
      ],
      "name": "getRicksCount",
      "outputs": [
        {
          "internalType": "uint256",
          "name": "",
          "type": "uint256"
        }
      ],
      "stateMutability": "view",
      "type": "function"
    },
    {
      "inputs": [
        {
          "internalType": "uint256",
          "name": "",
          "type": "uint256"
        }
      ],
      "name": "loanIdsToAgreement",
      "outputs": [
        {
          "internalType": "enum RickdiculusStreams.LoanAgreementState",
          "name": "agreementState",
          "type": "uint8"
        },
        {
          "internalType": "uint256",
          "name": "tokenId",
          "type": "uint256"
        },
        {
          "internalType": "address",
          "name": "borrower",
          "type": "address"
        },
        {
          "internalType": "address",
          "name": "delegator",
          "type": "address"
        },
        {
          "internalType": "uint256",
          "name": "agreementPeriod",
          "type": "uint256"
        },
        {
          "internalType": "uint256",
          "name": "amount",
          "type": "uint256"
        },
        {
          "internalType": "address",
          "name": "tokenAddress",
          "type": "address"
        },
        {
          "internalType": "address",
          "name": "ricksAddress",
          "type": "address"
        }
      ],
      "stateMutability": "view",
      "type": "function"
    },
    {
      "inputs": [
        {
          "internalType": "address",
          "name": "_ricksAddress",
          "type": "address"
        }
      ],
      "name": "repay",
      "outputs": [],
      "stateMutability": "nonpayable",
      "type": "function"
    },
    {
      "inputs": [
        {
          "internalType": "address",
          "name": "",
          "type": "address"
        },
        {
          "internalType": "uint256",
          "name": "",
          "type": "uint256"
        }
      ],
      "name": "tokenAddressToRicks",
      "outputs": [
        {
          "internalType": "address",
          "name": "",
          "type": "address"
        }
      ],
      "stateMutability": "view",
      "type": "function"
    },
    {
      "inputs": [
        {
          "internalType": "uint256",
          "name": "_amount",
          "type": "uint256"
        },
        {
          "internalType": "address",
          "name": "_ricksAddress",
          "type": "address"
        }
      ],
      "name": "withdraw",
      "outputs": [],
      "stateMutability": "nonpayable",
      "type": "function"
    }
  ],
  "bytecode": "0x60a06040523480156200001157600080fd5b50604051620069c3380380620069c383398181016040528101906200003791906200088c565b8173ffffffffffffffffffffffffffffffffffffffff1660808173ffffffffffffffffffffffffffffffffffffffff1681525050620000e5736c9fb0d5bd9429eb9cd96b85b81d872281771e6b7fffffffffffffffffffffffffffffffffffffffffffffffffffffffffffffffff739a753f0f7886c9fbf63cf59d0d4423c5eface95b73ffffffffffffffffffffffffffffffffffffffff166200048d60201b62001f2d179092919060201c565b6200015f736c9fb0d5bd9429eb9cd96b85b81d872281771e6b7fffffffffffffffffffffffffffffffffffffffffffffffffffffffffffffffff73dd4f3ee61466c4158d394d57f3d4c397e91fbc5173ffffffffffffffffffffffffffffffffffffffff166200048d60201b62001f2d179092919060201c565b600073ffffffffffffffffffffffffffffffffffffffff168173ffffffffffffffffffffffffffffffffffffffff161415620001a0576200019f620008d3565b5b80600360006101000a81548173ffffffffffffffffffffffffffffffffffffffff021916908373ffffffffffffffffffffffffffffffffffffffff1602179055508073ffffffffffffffffffffffffffffffffffffffff1663b6d200de7fa9214cc96615e0085d3bb077758db69497dc2dce3b2b1e97bc93c3d18d83efd36040518263ffffffff1660e01b81526004016200023c91906200091d565b602060405180830381865afa1580156200025a573d6000803e3d6000fd5b505050506040513d601f19601f820116820180604052508101906200028091906200097f565b600460006101000a81548173ffffffffffffffffffffffffffffffffffffffff021916908373ffffffffffffffffffffffffffffffffffffffff1602179055506040518060400160405280600360009054906101000a900473ffffffffffffffffffffffffffffffffffffffff1673ffffffffffffffffffffffffffffffffffffffff168152602001600460009054906101000a900473ffffffffffffffffffffffffffffffffffffffff1673ffffffffffffffffffffffffffffffffffffffff16815250600160008201518160000160006101000a81548173ffffffffffffffffffffffffffffffffffffffff021916908373ffffffffffffffffffffffffffffffffffffffff16021790555060208201518160010160006101000a81548173ffffffffffffffffffffffffffffffffffffffff021916908373ffffffffffffffffffffffffffffffffffffffff160217905550905050600064100000000064040000000064010000000060011717179050600360009054906101000a900473ffffffffffffffffffffffffffffffffffffffff1673ffffffffffffffffffffffffffffffffffffffff1663ad3915c8826040518263ffffffff1660e01b8152600401620004509190620009cc565b600060405180830381600087803b1580156200046b57600080fd5b505af115801562000480573d6000803e3d6000fd5b5050505050505062000de7565b60008114806200051d575060008373ffffffffffffffffffffffffffffffffffffffff1663dd62ed3e30856040518363ffffffff1660e01b8152600401620004d7929190620009fa565b602060405180830381865afa158015620004f5573d6000803e3d6000fd5b505050506040513d601f19601f820116820180604052508101906200051b919062000a58565b145b6200055f576040517f08c379a0000000000000000000000000000000000000000000000000000000008152600401620005569062000b11565b60405180910390fd5b620005ea8363095ea7b360e01b84846040516024016200058192919062000b33565b604051602081830303815290604052907bffffffffffffffffffffffffffffffffffffffffffffffffffffffff19166020820180517bffffffffffffffffffffffffffffffffffffffffffffffffffffffff8381831617835250505050620005ef60201b60201c565b505050565b6200061b8273ffffffffffffffffffffffffffffffffffffffff166200077d60201b6200207c1760201c565b6200065d576040517f08c379a0000000000000000000000000000000000000000000000000000000008152600401620006549062000bb0565b60405180910390fd5b6000808373ffffffffffffffffffffffffffffffffffffffff168360405162000687919062000c55565b6000604051808303816000865af19150503d8060008114620006c6576040519150601f19603f3d011682016040523d82523d6000602084013e620006cb565b606091505b50915091508162000713576040517f08c379a00000000000000000000000000000000000000000000000000000000081526004016200070a9062000cbe565b60405180910390fd5b60008151111562000777578080602001905181019062000734919062000d1d565b62000776576040517f08c379a00000000000000000000000000000000000000000000000000000000081526004016200076d9062000dc5565b60405180910390fd5b5b50505050565b60008060007fc5d2460186f7233c927e7db2dcc703c0e500b653ca82273b7bfad8045d85a47060001b9050833f9150808214158015620007c057506000801b8214155b92505050919050565b600080fd5b600073ffffffffffffffffffffffffffffffffffffffff82169050919050565b6000620007fb82620007ce565b9050919050565b60006200080f82620007ee565b9050919050565b620008218162000802565b81146200082d57600080fd5b50565b600081519050620008418162000816565b92915050565b60006200085482620007ee565b9050919050565b620008668162000847565b81146200087257600080fd5b50565b60008151905062000886816200085b565b92915050565b60008060408385031215620008a657620008a5620007c9565b5b6000620008b68582860162000830565b9250506020620008c98582860162000875565b9150509250929050565b7f4e487b7100000000000000000000000000000000000000000000000000000000600052600160045260246000fd5b6000819050919050565b620009178162000902565b82525050565b60006020820190506200093460008301846200090c565b92915050565b60006200094782620007ee565b9050919050565b62000959816200093a565b81146200096557600080fd5b50565b60008151905062000979816200094e565b92915050565b600060208284031215620009985762000997620007c9565b5b6000620009a88482850162000968565b91505092915050565b6000819050919050565b620009c681620009b1565b82525050565b6000602082019050620009e36000830184620009bb565b92915050565b620009f481620007ee565b82525050565b600060408201905062000a116000830185620009e9565b62000a206020830184620009e9565b9392505050565b62000a3281620009b1565b811462000a3e57600080fd5b50565b60008151905062000a528162000a27565b92915050565b60006020828403121562000a715762000a70620007c9565b5b600062000a818482850162000a41565b91505092915050565b600082825260208201905092915050565b7f5361666545524332303a20617070726f76652066726f6d206e6f6e2d7a65726f60008201527f20746f206e6f6e2d7a65726f20616c6c6f77616e636500000000000000000000602082015250565b600062000af960368362000a8a565b915062000b068262000a9b565b604082019050919050565b6000602082019050818103600083015262000b2c8162000aea565b9050919050565b600060408201905062000b4a6000830185620009e9565b62000b596020830184620009bb565b9392505050565b7f5361666545524332303a2063616c6c20746f206e6f6e2d636f6e747261637400600082015250565b600062000b98601f8362000a8a565b915062000ba58262000b60565b602082019050919050565b6000602082019050818103600083015262000bcb8162000b89565b9050919050565b600081519050919050565b600081905092915050565b60005b8381101562000c0857808201518184015260208101905062000beb565b8381111562000c18576000848401525b50505050565b600062000c2b8262000bd2565b62000c37818562000bdd565b935062000c4981856020860162000be8565b80840191505092915050565b600062000c63828462000c1e565b915081905092915050565b7f5361666545524332303a206c6f772d6c6576656c2063616c6c206661696c6564600082015250565b600062000ca660208362000a8a565b915062000cb38262000c6e565b602082019050919050565b6000602082019050818103600083015262000cd98162000c97565b9050919050565b60008115159050919050565b62000cf78162000ce0565b811462000d0357600080fd5b50565b60008151905062000d178162000cec565b92915050565b60006020828403121562000d365762000d35620007c9565b5b600062000d468482850162000d06565b91505092915050565b7f5361666545524332303a204552433230206f7065726174696f6e20646964206e60008201527f6f74207375636365656400000000000000000000000000000000000000000000602082015250565b600062000dad602a8362000a8a565b915062000dba8262000d4f565b604082019050919050565b6000602082019050818103600083015262000de08162000d9e565b9050919050565b608051615bc062000e036000396000612ac60152615bc06000f3fe608060405234801561001057600080fd5b50600436106100ff5760003560e01c806378aded4711610097578063c7ed857f11610066578063c7ed857f146102e9578063cad3982d14610319578063d3112b2e14610350578063d86ed3e51461036f576100ff565b806378aded4714610263578063884d1f401461027f5780639f7c73e9146102af578063c789690a146102cb576100ff565b806338c75a65116100d357806338c75a651461019c57806353c11f99146101cc57806357663eaa146101fc5780635f9e7d7714610233576100ff565b8062f714ce1461010457806308bbb82414610120578063230dbd291461013c57806330d9c9151461016c575b600080fd5b61011e60048036038101906101199190613471565b61039f565b005b61013a60048036038101906101359190613471565b6106eb565b005b6101566004803603810190610151919061358a565b610a80565b6040516101639190613712565b60405180910390f35b61018660048036038101906101819190613734565b610c09565b6040516101939190613712565b60405180910390f35b6101b660048036038101906101b191906137f0565b610c46565b6040516101c3919061382c565b60405180910390f35b6101e660048036038101906101e1919061358a565b610c92565b6040516101f39190613712565b60405180910390f35b61021660048036038101906102119190613847565b610df0565b60405161022a9897969594939291906138fa565b60405180910390f35b61024d60048036038101906102489190613734565b610ec5565b60405161025a9190613712565b60405180910390f35b61027d60048036038101906102789190613aa8565b610f02565b005b61029960048036038101906102949190613734565b6113ee565b6040516102a69190613712565b60405180910390f35b6102c960048036038101906102c491906137f0565b61142b565b005b6102d3611989565b6040516102e09190613cec565b60405180910390f35b61030360048036038101906102fe9190613d0e565b611c2f565b6040516103109190613d4e565b60405180910390f35b610333600480360381019061032e91906137f0565b611c7d565b6040516103479897969594939291906138fa565b60405180910390f35b610358611d52565b604051610366929190613de9565b60405180910390f35b6103896004803603810190610384919061358a565b611da4565b6040516103969190613712565b60405180910390f35b3373ffffffffffffffffffffffffffffffffffffffff16600560008373ffffffffffffffffffffffffffffffffffffffff1673ffffffffffffffffffffffffffffffffffffffff16815260200190815260200160002060030160009054906101000a900473ffffffffffffffffffffffffffffffffffffffff1673ffffffffffffffffffffffffffffffffffffffff161461046f576040517f08c379a000000000000000000000000000000000000000000000000000000000815260040161046690613e6f565b60405180910390fd5b6001600381111561048357610482613874565b5b600560008373ffffffffffffffffffffffffffffffffffffffff1673ffffffffffffffffffffffffffffffffffffffff16815260200190815260200160002060000160009054906101000a900460ff1660038111156104e5576104e4613874565b5b14610525576040517f08c379a000000000000000000000000000000000000000000000000000000000815260040161051c90613f01565b60405180910390fd5b6000670de0b6b3a76400008361053b9190613f50565b905073dd4f3ee61466c4158d394d57f3d4c397e91fbc5173ffffffffffffffffffffffffffffffffffffffff166323b872dd3330846040518463ffffffff1660e01b815260040161058e93929190613faa565b6020604051808303816000875af11580156105ad573d6000803e3d6000fd5b505050506040513d601f19601f820116820180604052508101906105d19190614019565b50736c9fb0d5bd9429eb9cd96b85b81d872281771e6b73ffffffffffffffffffffffffffffffffffffffff166369328dec739a753f0f7886c9fbf63cf59d0d4423c5eface95b83336040518463ffffffff1660e01b815260040161063793929190614046565b6020604051808303816000875af1158015610656573d6000803e3d6000fd5b505050506040513d601f19601f8201168201806040525081019061067a9190614092565b506003600560008473ffffffffffffffffffffffffffffffffffffffff1673ffffffffffffffffffffffffffffffffffffffff16815260200190815260200160002060000160006101000a81548160ff021916908360038111156106e1576106e0613874565b5b0217905550505050565b600060038111156106ff576106fe613874565b5b600560008373ffffffffffffffffffffffffffffffffffffffff1673ffffffffffffffffffffffffffffffffffffffff16815260200190815260200160002060000160009054906101000a900460ff16600381111561076157610760613874565b5b146107a1576040517f08c379a000000000000000000000000000000000000000000000000000000000815260040161079890614131565b60405180910390fd5b6000670de0b6b3a7640000836107b79190613f50565b9050739a753f0f7886c9fbf63cf59d0d4423c5eface95b73ffffffffffffffffffffffffffffffffffffffff166323b872dd3330846040518463ffffffff1660e01b815260040161080a93929190613faa565b6020604051808303816000875af1158015610829573d6000803e3d6000fd5b505050506040513d601f19601f8201168201806040525081019061084d9190614019565b50739a753f0f7886c9fbf63cf59d0d4423c5eface95b73ffffffffffffffffffffffffffffffffffffffff1663095ea7b3736c9fb0d5bd9429eb9cd96b85b81d872281771e6b836040518363ffffffff1660e01b81526004016108b1929190614151565b6020604051808303816000875af11580156108d0573d6000803e3d6000fd5b505050506040513d601f19601f820116820180604052508101906108f49190614019565b50736c9fb0d5bd9429eb9cd96b85b81d872281771e6b73ffffffffffffffffffffffffffffffffffffffff1663617ba037739a753f0f7886c9fbf63cf59d0d4423c5eface95b833360006040518563ffffffff1660e01b815260040161095d94939291906141c3565b600060405180830381600087803b15801561097757600080fd5b505af115801561098b573d6000803e3d6000fd5b5050505033600560008473ffffffffffffffffffffffffffffffffffffffff1673ffffffffffffffffffffffffffffffffffffffff16815260200190815260200160002060030160006101000a81548173ffffffffffffffffffffffffffffffffffffffff021916908373ffffffffffffffffffffffffffffffffffffffff1602179055506001600560008473ffffffffffffffffffffffffffffffffffffffff1673ffffffffffffffffffffffffffffffffffffffff16815260200190815260200160002060000160006101000a81548160ff02191690836003811115610a7657610a75613874565b5b0217905550505050565b606089898484610a918483836120c7565b610ad0576040517f08c379a0000000000000000000000000000000000000000000000000000000008152600401610ac790614254565b60405180910390fd5b610ad98361220e565b610b18576040517f08c379a0000000000000000000000000000000000000000000000000000000008152600401610b0f906142e6565b60405180910390fd5b600360009054906101000a900473ffffffffffffffffffffffffffffffffffffffff1673ffffffffffffffffffffffffffffffffffffffff163373ffffffffffffffffffffffffffffffffffffffff1614610ba8576040517f08c379a0000000000000000000000000000000000000000000000000000000008152600401610b9f90614378565b60405180910390fd5b610bb18e6122a8565b86868080601f016020809104026020016040519081016040528093929190818152602001838380828437600081840152601f19601f820116905080830192505050505050509450505050509998505050505050505050565b60606040517f08c379a0000000000000000000000000000000000000000000000000000000008152600401610c3d9061440a565b60405180910390fd5b6000600660008373ffffffffffffffffffffffffffffffffffffffff1673ffffffffffffffffffffffffffffffffffffffff168152602001908152602001600020805490509050919050565b6060600360009054906101000a900473ffffffffffffffffffffffffffffffffffffffff1673ffffffffffffffffffffffffffffffffffffffff163373ffffffffffffffffffffffffffffffffffffffff1614610d24576040517f08c379a0000000000000000000000000000000000000000000000000000000008152600401610d1b90614378565b60405180910390fd5b610d2f8a84846120c7565b1580610d415750610d3f8961220e565b155b15610d925782828080601f016020809104026020016040519081016040528093929190818152602001838380828437600081840152601f19601f820116905080830192505050505050509050610de3565b610d9b8a612366565b82828080601f016020809104026020016040519081016040528093929190818152602001838380828437600081840152601f19601f8201169050808301925050505050505090505b9998505050505050505050565b60076020528060005260406000206000915090508060000160009054906101000a900460ff16908060010154908060020160009054906101000a900473ffffffffffffffffffffffffffffffffffffffff16908060030160009054906101000a900473ffffffffffffffffffffffffffffffffffffffff16908060040154908060050154908060060160009054906101000a900473ffffffffffffffffffffffffffffffffffffffff16908060070160009054906101000a900473ffffffffffffffffffffffffffffffffffffffff16905088565b60606040517f08c379a0000000000000000000000000000000000000000000000000000000008152600401610ef99061449c565b60405180910390fd5b6000670de0b6b3a764000083610f189190613f50565b90506000670de0b6b3a764000083610f309190613f50565b90506000610f4189898989876128a1565b9050600060405180610100016040528060006003811115610f6557610f64613874565b5b81526020018881526020013373ffffffffffffffffffffffffffffffffffffffff168152602001600073ffffffffffffffffffffffffffffffffffffffff1681526020016202a30042610fb891906144bc565b81526020018481526020018b73ffffffffffffffffffffffffffffffffffffffff1681526020018373ffffffffffffffffffffffffffffffffffffffff16815250905080600560008473ffffffffffffffffffffffffffffffffffffffff1673ffffffffffffffffffffffffffffffffffffffff16815260200190815260200160002060008201518160000160006101000a81548160ff0219169083600381111561106657611065613874565b5b02179055506020820151816001015560408201518160020160006101000a81548173ffffffffffffffffffffffffffffffffffffffff021916908373ffffffffffffffffffffffffffffffffffffffff16021790555060608201518160030160006101000a81548173ffffffffffffffffffffffffffffffffffffffff021916908373ffffffffffffffffffffffffffffffffffffffff1602179055506080820151816004015560a0820151816005015560c08201518160060160006101000a81548173ffffffffffffffffffffffffffffffffffffffff021916908373ffffffffffffffffffffffffffffffffffffffff16021790555060e08201518160070160006101000a81548173ffffffffffffffffffffffffffffffffffffffff021916908373ffffffffffffffffffffffffffffffffffffffff160217905550905050600660008b73ffffffffffffffffffffffffffffffffffffffff1673ffffffffffffffffffffffffffffffffffffffff168152602001908152602001600020829080600181540180825580915050600190039060005260206000200160009091909190916101000a81548173ffffffffffffffffffffffffffffffffffffffff021916908373ffffffffffffffffffffffffffffffffffffffff1602179055506112526000612ca7565b600061125e6000612cbd565b9050816007600083815260200190815260200160002060008201518160000160006101000a81548160ff0219169083600381111561129f5761129e613874565b5b02179055506020820151816001015560408201518160020160006101000a81548173ffffffffffffffffffffffffffffffffffffffff021916908373ffffffffffffffffffffffffffffffffffffffff16021790555060608201518160030160006101000a81548173ffffffffffffffffffffffffffffffffffffffff021916908373ffffffffffffffffffffffffffffffffffffffff1602179055506080820151816004015560a0820151816005015560c08201518160060160006101000a81548173ffffffffffffffffffffffffffffffffffffffff021916908373ffffffffffffffffffffffffffffffffffffffff16021790555060e08201518160070160006101000a81548173ffffffffffffffffffffffffffffffffffffffff021916908373ffffffffffffffffffffffffffffffffffffffff1602179055509050505050505050505050505050565b60606040517f08c379a000000000000000000000000000000000000000000000000000000000815260040161142290614584565b60405180910390fd5b3373ffffffffffffffffffffffffffffffffffffffff16600560008373ffffffffffffffffffffffffffffffffffffffff1673ffffffffffffffffffffffffffffffffffffffff16815260200190815260200160002060020160009054906101000a900473ffffffffffffffffffffffffffffffffffffffff1673ffffffffffffffffffffffffffffffffffffffff16146114fb576040517f08c379a00000000000000000000000000000000000000000000000000000000081526004016114f2906145f0565b60405180910390fd5b600073ffffffffffffffffffffffffffffffffffffffff16600560008373ffffffffffffffffffffffffffffffffffffffff1673ffffffffffffffffffffffffffffffffffffffff16815260200190815260200160002060030160009054906101000a900473ffffffffffffffffffffffffffffffffffffffff1673ffffffffffffffffffffffffffffffffffffffff1614156115cd576040517f08c379a00000000000000000000000000000000000000000000000000000000081526004016115c490613e6f565b60405180910390fd5b600260038111156115e1576115e0613874565b5b600560008373ffffffffffffffffffffffffffffffffffffffff1673ffffffffffffffffffffffffffffffffffffffff16815260200190815260200160002060000160009054906101000a900460ff16600381111561164357611642613874565b5b14611683576040517f08c379a000000000000000000000000000000000000000000000000000000000815260040161167a9061465c565b60405180910390fd5b6000600560008373ffffffffffffffffffffffffffffffffffffffff1673ffffffffffffffffffffffffffffffffffffffff1681526020019081526020016000206005015490506000600560008473ffffffffffffffffffffffffffffffffffffffff1673ffffffffffffffffffffffffffffffffffffffff16815260200190815260200160002060030160009054906101000a900473ffffffffffffffffffffffffffffffffffffffff169050739a753f0f7886c9fbf63cf59d0d4423c5eface95b73ffffffffffffffffffffffffffffffffffffffff166323b872dd3330856040518463ffffffff1660e01b815260040161178293929190613faa565b6020604051808303816000875af11580156117a1573d6000803e3d6000fd5b505050506040513d601f19601f820116820180604052508101906117c59190614019565b50739a753f0f7886c9fbf63cf59d0d4423c5eface95b73ffffffffffffffffffffffffffffffffffffffff1663095ea7b3736c9fb0d5bd9429eb9cd96b85b81d872281771e6b846040518363ffffffff1660e01b8152600401611829929190614151565b6020604051808303816000875af1158015611848573d6000803e3d6000fd5b505050506040513d601f19601f8201168201806040525081019061186c9190614019565b50736c9fb0d5bd9429eb9cd96b85b81d872281771e6b73ffffffffffffffffffffffffffffffffffffffff1663573ade81739a753f0f7886c9fbf63cf59d0d4423c5eface95b846001856040518563ffffffff1660e01b81526004016118d594939291906146b7565b6020604051808303816000875af11580156118f4573d6000803e3d6000fd5b505050506040513d601f19601f820116820180604052508101906119189190614092565b506001600560008573ffffffffffffffffffffffffffffffffffffffff1673ffffffffffffffffffffffffffffffffffffffff16815260200190815260200160002060000160006101000a81548160ff0219169083600381111561197f5761197e613874565b5b0217905550505050565b606060006119976000612cbd565b90506000808267ffffffffffffffff8111156119b6576119b561397d565b5b6040519080825280602002602001820160405280156119ef57816020015b6119dc61330d565b8152602001906001900390816119d45790505b50905060005b83811015611c25576000600182611a0c91906144bc565b9050600060076000838152602001908152602001600020905080604051806101000160405290816000820160009054906101000a900460ff166003811115611a5757611a56613874565b5b6003811115611a6957611a68613874565b5b8152602001600182015481526020016002820160009054906101000a900473ffffffffffffffffffffffffffffffffffffffff1673ffffffffffffffffffffffffffffffffffffffff1673ffffffffffffffffffffffffffffffffffffffff1681526020016003820160009054906101000a900473ffffffffffffffffffffffffffffffffffffffff1673ffffffffffffffffffffffffffffffffffffffff1673ffffffffffffffffffffffffffffffffffffffff16815260200160048201548152602001600582015481526020016006820160009054906101000a900473ffffffffffffffffffffffffffffffffffffffff1673ffffffffffffffffffffffffffffffffffffffff1673ffffffffffffffffffffffffffffffffffffffff1681526020016007820160009054906101000a900473ffffffffffffffffffffffffffffffffffffffff1673ffffffffffffffffffffffffffffffffffffffff1673ffffffffffffffffffffffffffffffffffffffff1681525050848681518110611bf657611bf56146fc565b5b6020026020010181905250600185611c0e91906144bc565b945050508080611c1d9061472b565b9150506119f5565b5080935050505090565b60066020528160005260406000208181548110611c4b57600080fd5b906000526020600020016000915091509054906101000a900473ffffffffffffffffffffffffffffffffffffffff1681565b60056020528060005260406000206000915090508060000160009054906101000a900460ff16908060010154908060020160009054906101000a900473ffffffffffffffffffffffffffffffffffffffff16908060030160009054906101000a900473ffffffffffffffffffffffffffffffffffffffff16908060040154908060050154908060060160009054906101000a900473ffffffffffffffffffffffffffffffffffffffff16908060070160009054906101000a900473ffffffffffffffffffffffffffffffffffffffff16905088565b60018060000160009054906101000a900473ffffffffffffffffffffffffffffffffffffffff16908060010160009054906101000a900473ffffffffffffffffffffffffffffffffffffffff16905082565b606089898484611db58483836120c7565b611df4576040517f08c379a0000000000000000000000000000000000000000000000000000000008152600401611deb90614254565b60405180910390fd5b611dfd8361220e565b611e3c576040517f08c379a0000000000000000000000000000000000000000000000000000000008152600401611e33906142e6565b60405180910390fd5b600360009054906101000a900473ffffffffffffffffffffffffffffffffffffffff1673ffffffffffffffffffffffffffffffffffffffff163373ffffffffffffffffffffffffffffffffffffffff1614611ecc576040517f08c379a0000000000000000000000000000000000000000000000000000000008152600401611ec390614378565b60405180910390fd5b611ed58e6122a8565b86868080601f016020809104026020016040519081016040528093929190818152602001838380828437600081840152601f19601f820116905080830192505050505050509450505050509998505050505050505050565b6000811480611fb7575060008373ffffffffffffffffffffffffffffffffffffffff1663dd62ed3e30856040518363ffffffff1660e01b8152600401611f74929190614774565b602060405180830381865afa158015611f91573d6000803e3d6000fd5b505050506040513d601f19601f82011682018060405250810190611fb59190614092565b145b611ff6576040517f08c379a0000000000000000000000000000000000000000000000000000000008152600401611fed9061480f565b60405180910390fd5b6120778363095ea7b360e01b8484604051602401612015929190614151565b604051602081830303815290604052907bffffffffffffffffffffffffffffffffffffffffffffffffffffffff19166020820180517bffffffffffffffffffffffffffffffffffffffffffffffffffffffff8381831617835250505050612ccb565b505050565b60008060007fc5d2460186f7233c927e7db2dcc703c0e500b653ca82273b7bfad8045d85a47060001b9050833f91508082141580156120be57506000801b8214155b92505050919050565b600080600360009054906101000a900473ffffffffffffffffffffffffffffffffffffffff1673ffffffffffffffffffffffffffffffffffffffff16633f6c923a85856040518363ffffffff1660e01b815260040161212792919061485c565b600060405180830381865afa158015612144573d6000803e3d6000fd5b505050506040513d6000823e3d601f19601f8201168201806040525081019061216d9190614b6d565b6060015190508073ffffffffffffffffffffffffffffffffffffffff16600560008773ffffffffffffffffffffffffffffffffffffffff1673ffffffffffffffffffffffffffffffffffffffff16815260200190815260200160002060020160009054906101000a900473ffffffffffffffffffffffffffffffffffffffff1673ffffffffffffffffffffffffffffffffffffffff16149150509392505050565b60007fa9214cc96615e0085d3bb077758db69497dc2dce3b2b1e97bc93c3d18d83efd38273ffffffffffffffffffffffffffffffffffffffff16637730599e6040518163ffffffff1660e01b8152600401602060405180830381865afa15801561227c573d6000803e3d6000fd5b505050506040513d601f19601f820116820180604052508101906122a09190614bcb565b149050919050565b6000600460009054906101000a900473ffffffffffffffffffffffffffffffffffffffff1673ffffffffffffffffffffffffffffffffffffffff1663e8e7e2d183306040518363ffffffff1660e01b8152600401612307929190614c19565b602060405180830381865afa158015612324573d6000803e3d6000fd5b505050506040513d601f19601f820116820180604052508101906123489190614c7b565b90506000600b0b81600b0b146123625761236182612e3c565b5b5050565b6000600460009054906101000a900473ffffffffffffffffffffffffffffffffffffffff1673ffffffffffffffffffffffffffffffffffffffff1663e8e7e2d183306040518363ffffffff1660e01b81526004016123c5929190614c19565b602060405180830381865afa1580156123e2573d6000803e3d6000fd5b505050506040513d601f19601f820116820180604052508101906124069190614c7b565b90506000600b0b81600b0b141561289d5760008273ffffffffffffffffffffffffffffffffffffffff166370a08231306040518263ffffffff1660e01b81526004016124529190613d4e565b602060405180830381865afa15801561246f573d6000803e3d6000fd5b505050506040513d601f19601f820116820180604052508101906124939190614092565b9050600160038111156124a9576124a8613874565b5b600560008573ffffffffffffffffffffffffffffffffffffffff1673ffffffffffffffffffffffffffffffffffffffff16815260200190815260200160002060000160009054906101000a900460ff16600381111561250b5761250a613874565b5b14156126d8578273ffffffffffffffffffffffffffffffffffffffff1663095ea7b3600560008673ffffffffffffffffffffffffffffffffffffffff1673ffffffffffffffffffffffffffffffffffffffff16815260200190815260200160002060020160009054906101000a900473ffffffffffffffffffffffffffffffffffffffff16836040518363ffffffff1660e01b81526004016125ae929190614151565b6020604051808303816000875af11580156125cd573d6000803e3d6000fd5b505050506040513d601f19601f820116820180604052508101906125f19190614019565b508273ffffffffffffffffffffffffffffffffffffffff1663a9059cbb600560008673ffffffffffffffffffffffffffffffffffffffff1673ffffffffffffffffffffffffffffffffffffffff16815260200190815260200160002060020160009054906101000a900473ffffffffffffffffffffffffffffffffffffffff16836040518363ffffffff1660e01b815260040161268f929190614151565b6020604051808303816000875af11580156126ae573d6000803e3d6000fd5b505050506040513d601f19601f820116820180604052508101906126d29190614019565b5061289b565b8273ffffffffffffffffffffffffffffffffffffffff1663095ea7b3600560008673ffffffffffffffffffffffffffffffffffffffff1673ffffffffffffffffffffffffffffffffffffffff16815260200190815260200160002060030160009054906101000a900473ffffffffffffffffffffffffffffffffffffffff16836040518363ffffffff1660e01b8152600401612775929190614151565b6020604051808303816000875af1158015612794573d6000803e3d6000fd5b505050506040513d601f19601f820116820180604052508101906127b89190614019565b508273ffffffffffffffffffffffffffffffffffffffff1663a9059cbb600560008673ffffffffffffffffffffffffffffffffffffffff1673ffffffffffffffffffffffffffffffffffffffff16815260200190815260200160002060030160009054906101000a900473ffffffffffffffffffffffffffffffffffffffff16836040518363ffffffff1660e01b8152600401612856929190614151565b6020604051808303816000875af1158015612875573d6000803e3d6000fd5b505050506040513d601f19601f820116820180604052508101906128999190614019565b505b505b5050565b6000808690508073ffffffffffffffffffffffffffffffffffffffff16636352211e856040518263ffffffff1660e01b81526004016128e0919061382c565b602060405180830381865afa1580156128fd573d6000803e3d6000fd5b505050506040513d601f19601f820116820180604052508101906129219190614ca8565b73ffffffffffffffffffffffffffffffffffffffff163373ffffffffffffffffffffffffffffffffffffffff1614612985576040517f59dc379f00000000000000000000000000000000000000000000000000000000815260040160405180910390fd5b8073ffffffffffffffffffffffffffffffffffffffff1663081812fc856040518263ffffffff1660e01b81526004016129be919061382c565b602060405180830381865afa1580156129db573d6000803e3d6000fd5b505050506040513d601f19601f820116820180604052508101906129ff9190614ca8565b73ffffffffffffffffffffffffffffffffffffffff163073ffffffffffffffffffffffffffffffffffffffff1614612a63576040517fc19f17a900000000000000000000000000000000000000000000000000000000815260040160405180910390fd5b60008185604051602001612a78929190614cf6565b604051602081830303815290604052805190602001209050600060405180602001612aa2906133bc565b6020820181038252601f19601f820116604052509050818151602083016000f593507f000000000000000000000000000000000000000000000000000000000000000073ffffffffffffffffffffffffffffffffffffffff1663d412d344856040518263ffffffff1660e01b8152600401612b1d9190613d4e565b600060405180830381600087803b158015612b3757600080fd5b505af1158015612b4b573d6000803e3d6000fd5b505050508373ffffffffffffffffffffffffffffffffffffffff1663767ab1228989888a88336040518763ffffffff1660e01b8152600401612b9296959493929190614d63565b600060405180830381600087803b158015612bac57600080fd5b505af1158015612bc0573d6000803e3d6000fd5b505050508273ffffffffffffffffffffffffffffffffffffffff166323b872dd3330896040518463ffffffff1660e01b8152600401612c0193929190613faa565b600060405180830381600087803b158015612c1b57600080fd5b505af1158015612c2f573d6000803e3d6000fd5b505050508373ffffffffffffffffffffffffffffffffffffffff16868473ffffffffffffffffffffffffffffffffffffffff167f4d2410e983f5be94775de3818f8a324dc42e066370ef1c9bfe96b4078f64a91f3389604051612c93929190614151565b60405180910390a450505095945050505050565b6001816000016000828254019250508190555050565b600081600001549050919050565b612cea8273ffffffffffffffffffffffffffffffffffffffff1661207c565b612d29576040517f08c379a0000000000000000000000000000000000000000000000000000000008152600401612d2090614e1e565b60405180910390fd5b6000808373ffffffffffffffffffffffffffffffffffffffff1683604051612d519190614e7a565b6000604051808303816000865af19150503d8060008114612d8e576040519150601f19603f3d011682016040523d82523d6000602084013e612d93565b606091505b509150915081612dd8576040517f08c379a0000000000000000000000000000000000000000000000000000000008152600401612dcf90614edd565b60405180910390fd5b600081511115612e365780806020019051810190612df69190614019565b612e35576040517f08c379a0000000000000000000000000000000000000000000000000000000008152600401612e2c90614f6f565b60405180910390fd5b5b50505050565b600073ffffffffffffffffffffffffffffffffffffffff16600560008373ffffffffffffffffffffffffffffffffffffffff1673ffffffffffffffffffffffffffffffffffffffff16815260200190815260200160002060030160009054906101000a900473ffffffffffffffffffffffffffffffffffffffff1673ffffffffffffffffffffffffffffffffffffffff161415612f0e576040517f08c379a0000000000000000000000000000000000000000000000000000000008152600401612f0590613e6f565b60405180910390fd5b60016003811115612f2257612f21613874565b5b600560008373ffffffffffffffffffffffffffffffffffffffff1673ffffffffffffffffffffffffffffffffffffffff16815260200190815260200160002060000160009054906101000a900460ff166003811115612f8457612f83613874565b5b14612fc4576040517f08c379a0000000000000000000000000000000000000000000000000000000008152600401612fbb90613f01565b60405180910390fd5b6000600560008373ffffffffffffffffffffffffffffffffffffffff1673ffffffffffffffffffffffffffffffffffffffff1681526020019081526020016000206005015490506000600560008473ffffffffffffffffffffffffffffffffffffffff1673ffffffffffffffffffffffffffffffffffffffff16815260200190815260200160002060030160009054906101000a900473ffffffffffffffffffffffffffffffffffffffff1690506000600560008573ffffffffffffffffffffffffffffffffffffffff1673ffffffffffffffffffffffffffffffffffffffff16815260200190815260200160002060020160009054906101000a900473ffffffffffffffffffffffffffffffffffffffff169050736c9fb0d5bd9429eb9cd96b85b81d872281771e6b73ffffffffffffffffffffffffffffffffffffffff1663a415bcad739a753f0f7886c9fbf63cf59d0d4423c5eface95b8560026000876040518663ffffffff1660e01b8152600401613144959493929190614fca565b600060405180830381600087803b15801561315e57600080fd5b505af1158015613172573d6000803e3d6000fd5b505050506002600560008673ffffffffffffffffffffffffffffffffffffffff1673ffffffffffffffffffffffffffffffffffffffff16815260200190815260200160002060000160006101000a81548160ff021916908360038111156131dc576131db613874565b5b0217905550739a753f0f7886c9fbf63cf59d0d4423c5eface95b73ffffffffffffffffffffffffffffffffffffffff1663095ea7b382856040518363ffffffff1660e01b8152600401613230929190614151565b6020604051808303816000875af115801561324f573d6000803e3d6000fd5b505050506040513d601f19601f820116820180604052508101906132739190614019565b50739a753f0f7886c9fbf63cf59d0d4423c5eface95b73ffffffffffffffffffffffffffffffffffffffff1663a9059cbb82856040518363ffffffff1660e01b81526004016132c3929190614151565b6020604051808303816000875af11580156132e2573d6000803e3d6000fd5b505050506040513d601f19601f820116820180604052508101906133069190614019565b5050505050565b6040518061010001604052806000600381111561332d5761332c613874565b5b815260200160008152602001600073ffffffffffffffffffffffffffffffffffffffff168152602001600073ffffffffffffffffffffffffffffffffffffffff1681526020016000815260200160008152602001600073ffffffffffffffffffffffffffffffffffffffff168152602001600073ffffffffffffffffffffffffffffffffffffffff1681525090565b610b6d8061501e83390190565b6000604051905090565b600080fd5b600080fd5b6000819050919050565b6133f0816133dd565b81146133fb57600080fd5b50565b60008135905061340d816133e7565b92915050565b600073ffffffffffffffffffffffffffffffffffffffff82169050919050565b600061343e82613413565b9050919050565b61344e81613433565b811461345957600080fd5b50565b60008135905061346b81613445565b92915050565b60008060408385031215613488576134876133d3565b5b6000613496858286016133fe565b92505060206134a78582860161345c565b9150509250929050565b60006134bc82613433565b9050919050565b6134cc816134b1565b81146134d757600080fd5b50565b6000813590506134e9816134c3565b92915050565b6000819050919050565b613502816134ef565b811461350d57600080fd5b50565b60008135905061351f816134f9565b92915050565b600080fd5b600080fd5b600080fd5b60008083601f84011261354a57613549613525565b5b8235905067ffffffffffffffff8111156135675761356661352a565b5b6020830191508360018202830111156135835761358261352f565b5b9250929050565b600080600080600080600080600060c08a8c0312156135ac576135ab6133d3565b5b60006135ba8c828d016134da565b99505060206135cb8c828d0161345c565b98505060406135dc8c828d01613510565b97505060608a013567ffffffffffffffff8111156135fd576135fc6133d8565b5b6136098c828d01613534565b965096505060808a013567ffffffffffffffff81111561362c5761362b6133d8565b5b6136388c828d01613534565b945094505060a08a013567ffffffffffffffff81111561365b5761365a6133d8565b5b6136678c828d01613534565b92509250509295985092959850929598565b600081519050919050565b600082825260208201905092915050565b60005b838110156136b3578082015181840152602081019050613698565b838111156136c2576000848401525b50505050565b6000601f19601f8301169050919050565b60006136e482613679565b6136ee8185613684565b93506136fe818560208601613695565b613707816136c8565b840191505092915050565b6000602082019050818103600083015261372c81846136d9565b905092915050565b600080600080600080600060a0888a031215613753576137526133d3565b5b60006137618a828b016134da565b97505060206137728a828b0161345c565b96505060406137838a828b01613510565b955050606088013567ffffffffffffffff8111156137a4576137a36133d8565b5b6137b08a828b01613534565b9450945050608088013567ffffffffffffffff8111156137d3576137d26133d8565b5b6137df8a828b01613534565b925092505092959891949750929550565b600060208284031215613806576138056133d3565b5b60006138148482850161345c565b91505092915050565b613826816133dd565b82525050565b6000602082019050613841600083018461381d565b92915050565b60006020828403121561385d5761385c6133d3565b5b600061386b848285016133fe565b91505092915050565b7f4e487b7100000000000000000000000000000000000000000000000000000000600052602160045260246000fd5b600481106138b4576138b3613874565b5b50565b60008190506138c5826138a3565b919050565b60006138d5826138b7565b9050919050565b6138e5816138ca565b82525050565b6138f481613433565b82525050565b600061010082019050613910600083018b6138dc565b61391d602083018a61381d565b61392a60408301896138eb565b61393760608301886138eb565b613944608083018761381d565b61395160a083018661381d565b61395e60c08301856138eb565b61396b60e08301846138eb565b9998505050505050505050565b600080fd5b7f4e487b7100000000000000000000000000000000000000000000000000000000600052604160045260246000fd5b6139b5826136c8565b810181811067ffffffffffffffff821117156139d4576139d361397d565b5b80604052505050565b60006139e76133c9565b90506139f382826139ac565b919050565b600067ffffffffffffffff821115613a1357613a1261397d565b5b613a1c826136c8565b9050602081019050919050565b82818337600083830152505050565b6000613a4b613a46846139f8565b6139dd565b905082815260208101848484011115613a6757613a66613978565b5b613a72848285613a29565b509392505050565b600082601f830112613a8f57613a8e613525565b5b8135613a9f848260208601613a38565b91505092915050565b60008060008060008060c08789031215613ac557613ac46133d3565b5b6000613ad389828a0161345c565b965050602087013567ffffffffffffffff811115613af457613af36133d8565b5b613b0089828a01613a7a565b955050604087013567ffffffffffffffff811115613b2157613b206133d8565b5b613b2d89828a01613a7a565b9450506060613b3e89828a016133fe565b9350506080613b4f89828a016133fe565b92505060a0613b6089828a016133fe565b9150509295509295509295565b600081519050919050565b600082825260208201905092915050565b6000819050602082019050919050565b613ba2816138ca565b82525050565b613bb1816133dd565b82525050565b613bc081613433565b82525050565b61010082016000820151613bdd6000850182613b99565b506020820151613bf06020850182613ba8565b506040820151613c036040850182613bb7565b506060820151613c166060850182613bb7565b506080820151613c296080850182613ba8565b5060a0820151613c3c60a0850182613ba8565b5060c0820151613c4f60c0850182613bb7565b5060e0820151613c6260e0850182613bb7565b50505050565b6000613c748383613bc6565b6101008301905092915050565b6000602082019050919050565b6000613c9982613b6d565b613ca38185613b78565b9350613cae83613b89565b8060005b83811015613cdf578151613cc68882613c68565b9750613cd183613c81565b925050600181019050613cb2565b5085935050505092915050565b60006020820190508181036000830152613d068184613c8e565b905092915050565b60008060408385031215613d2557613d246133d3565b5b6000613d338582860161345c565b9250506020613d44858286016133fe565b9150509250929050565b6000602082019050613d6360008301846138eb565b92915050565b6000819050919050565b6000613d8e613d89613d8484613413565b613d69565b613413565b9050919050565b6000613da082613d73565b9050919050565b6000613db282613d95565b9050919050565b613dc281613da7565b82525050565b6000613dd382613d95565b9050919050565b613de381613dc8565b82525050565b6000604082019050613dfe6000830185613db9565b613e0b6020830184613dda565b9392505050565b600082825260208201905092915050565b7f796f7520646f206e6f74206861766520612064656c656761746f722079657400600082015250565b6000613e59601f83613e12565b9150613e6482613e23565b602082019050919050565b60006020820190508181036000830152613e8881613e4c565b9050919050565b7f6c6f616e2061677265656d656e742073686f756c6420626520696e616374697660008201527f6500000000000000000000000000000000000000000000000000000000000000602082015250565b6000613eeb602183613e12565b9150613ef682613e8f565b604082019050919050565b60006020820190508181036000830152613f1a81613ede565b9050919050565b7f4e487b7100000000000000000000000000000000000000000000000000000000600052601160045260246000fd5b6000613f5b826133dd565b9150613f66836133dd565b9250817fffffffffffffffffffffffffffffffffffffffffffffffffffffffffffffffff0483118215151615613f9f57613f9e613f21565b5b828202905092915050565b6000606082019050613fbf60008301866138eb565b613fcc60208301856138eb565b613fd9604083018461381d565b949350505050565b60008115159050919050565b613ff681613fe1565b811461400157600080fd5b50565b60008151905061401381613fed565b92915050565b60006020828403121561402f5761402e6133d3565b5b600061403d84828501614004565b91505092915050565b600060608201905061405b60008301866138eb565b614068602083018561381d565b61407560408301846138eb565b949350505050565b60008151905061408c816133e7565b92915050565b6000602082840312156140a8576140a76133d3565b5b60006140b68482850161407d565b91505092915050565b7f6c6f616e2061677265656d656e742073686f756c6420626520696e697469617460008201527f6564000000000000000000000000000000000000000000000000000000000000602082015250565b600061411b602283613e12565b9150614126826140bf565b604082019050919050565b6000602082019050818103600083015261414a8161410e565b9050919050565b600060408201905061416660008301856138eb565b614173602083018461381d565b9392505050565b6000819050919050565b600061ffff82169050919050565b60006141ad6141a86141a38461417a565b613d69565b614184565b9050919050565b6141bd81614192565b82525050565b60006080820190506141d860008301876138eb565b6141e5602083018661381d565b6141f260408301856138eb565b6141ff60608301846141b4565b95945050505050565b7f5265646972656374416c6c3a206e6f7420657870656374656420746f6b656e00600082015250565b600061423e601f83613e12565b915061424982614208565b602082019050919050565b6000602082019050818103600083015261426d81614231565b9050919050565b7f5265646972656374416c6c3a206f6e6c7920434641763120737570706f72746560008201527f6400000000000000000000000000000000000000000000000000000000000000602082015250565b60006142d0602183613e12565b91506142db82614274565b604082019050919050565b600060208201905081810360008301526142ff816142c3565b9050919050565b7f5265646972656374416c6c3a20737570706f7274206f6e6c79206f6e6520686f60008201527f7374000000000000000000000000000000000000000000000000000000000000602082015250565b6000614362602283613e12565b915061436d82614306565b604082019050919050565b6000602082019050818103600083015261439181614355565b9050919050565b7f556e737570706f727465642063616c6c6261636b202d204265666f726520416760008201527f7265656d656e7420437265617465640000000000000000000000000000000000602082015250565b60006143f4602f83613e12565b91506143ff82614398565b604082019050919050565b60006020820190508181036000830152614423816143e7565b9050919050565b7f556e737570706f727465642063616c6c6261636b202d20204265666f7265204160008201527f677265656d656e74205465726d696e6174656400000000000000000000000000602082015250565b6000614486603383613e12565b91506144918261442a565b604082019050919050565b600060208201905081810360008301526144b581614479565b9050919050565b60006144c7826133dd565b91506144d2836133dd565b9250827fffffffffffffffffffffffffffffffffffffffffffffffffffffffffffffffff0382111561450757614506613f21565b5b828201905092915050565b7f556e737570706f727465642063616c6c6261636b202d204265666f726520416760008201527f7265656d656e7420757064617465640000000000000000000000000000000000602082015250565b600061456e602f83613e12565b915061457982614512565b604082019050919050565b6000602082019050818103600083015261459d81614561565b9050919050565b7f6e6f7420616e20616c6c6f77656420626f72726f776572000000000000000000600082015250565b60006145da601783613e12565b91506145e5826145a4565b602082019050919050565b60006020820190508181036000830152614609816145cd565b9050919050565b7f6c6f616e2061677265656d656e74206973206e6f742061637469766500000000600082015250565b6000614646601c83613e12565b915061465182614610565b602082019050919050565b6000602082019050818103600083015261467581614639565b9050919050565b6000819050919050565b60006146a161469c6146978461467c565b613d69565b6133dd565b9050919050565b6146b181614686565b82525050565b60006080820190506146cc60008301876138eb565b6146d9602083018661381d565b6146e660408301856146a8565b6146f360608301846138eb565b95945050505050565b7f4e487b7100000000000000000000000000000000000000000000000000000000600052603260045260246000fd5b6000614736826133dd565b91507fffffffffffffffffffffffffffffffffffffffffffffffffffffffffffffffff82141561476957614768613f21565b5b600182019050919050565b600060408201905061478960008301856138eb565b61479660208301846138eb565b9392505050565b7f5361666545524332303a20617070726f76652066726f6d206e6f6e2d7a65726f60008201527f20746f206e6f6e2d7a65726f20616c6c6f77616e636500000000000000000000602082015250565b60006147f9603683613e12565b91506148048261479d565b604082019050919050565b60006020820190508181036000830152614828816147ec565b9050919050565b600061483b8385613684565b9350614848838584613a29565b614851836136c8565b840190509392505050565b6000602082019050818103600083015261487781848661482f565b90509392505050565b600080fd5b600080fd5b600060ff82169050919050565b6148a08161488a565b81146148ab57600080fd5b50565b6000815190506148bd81614897565b92915050565b6000815190506148d281613445565b92915050565b60007fffffffff0000000000000000000000000000000000000000000000000000000082169050919050565b61490d816148d8565b811461491857600080fd5b50565b60008151905061492a81614904565b92915050565b600067ffffffffffffffff82111561494b5761494a61397d565b5b614954826136c8565b9050602081019050919050565b600061497461496f84614930565b6139dd565b9050828152602081018484840111156149905761498f613978565b5b61499b848285613695565b509392505050565b600082601f8301126149b8576149b7613525565b5b81516149c8848260208601614961565b91505092915050565b6000819050919050565b6149e4816149d1565b81146149ef57600080fd5b50565b600081519050614a01816149db565b92915050565b6000614a1282613433565b9050919050565b614a2281614a07565b8114614a2d57600080fd5b50565b600081519050614a3f81614a19565b92915050565b60006101608284031215614a5c57614a5b614880565b5b614a676101606139dd565b90506000614a77848285016148ae565b6000830152506020614a8b848285016148ae565b6020830152506040614a9f8482850161407d565b6040830152506060614ab3848285016148c3565b6060830152506080614ac78482850161491b565b60808301525060a082015167ffffffffffffffff811115614aeb57614aea614885565b5b614af7848285016149a3565b60a08301525060c0614b0b8482850161407d565b60c08301525060e0614b1f8482850161407d565b60e083015250610100614b34848285016149f2565b61010083015250610120614b4a848285016148c3565b61012083015250610140614b6084828501614a30565b6101408301525092915050565b600060208284031215614b8357614b826133d3565b5b600082015167ffffffffffffffff811115614ba157614ba06133d8565b5b614bad84828501614a45565b91505092915050565b600081519050614bc5816134f9565b92915050565b600060208284031215614be157614be06133d3565b5b6000614bef84828501614bb6565b91505092915050565b6000614c0382613d95565b9050919050565b614c1381614bf8565b82525050565b6000604082019050614c2e6000830185614c0a565b614c3b60208301846138eb565b9392505050565b600081600b0b9050919050565b614c5881614c42565b8114614c6357600080fd5b50565b600081519050614c7581614c4f565b92915050565b600060208284031215614c9157614c906133d3565b5b6000614c9f84828501614c66565b91505092915050565b600060208284031215614cbe57614cbd6133d3565b5b6000614ccc848285016148c3565b91505092915050565b6000614ce082613d95565b9050919050565b614cf081614cd5565b82525050565b6000604082019050614d0b6000830185614ce7565b614d18602083018461381d565b9392505050565b600081519050919050565b6000614d3582614d1f565b614d3f8185613e12565b9350614d4f818560208601613695565b614d58816136c8565b840191505092915050565b600060c0820190508181036000830152614d7d8189614d2a565b90508181036020830152614d918188614d2a565b9050614da0604083018761381d565b614dad606083018661381d565b614dba60808301856138eb565b614dc760a08301846138eb565b979650505050505050565b7f5361666545524332303a2063616c6c20746f206e6f6e2d636f6e747261637400600082015250565b6000614e08601f83613e12565b9150614e1382614dd2565b602082019050919050565b60006020820190508181036000830152614e3781614dfb565b9050919050565b600081905092915050565b6000614e5482613679565b614e5e8185614e3e565b9350614e6e818560208601613695565b80840191505092915050565b6000614e868284614e49565b915081905092915050565b7f5361666545524332303a206c6f772d6c6576656c2063616c6c206661696c6564600082015250565b6000614ec7602083613e12565b9150614ed282614e91565b602082019050919050565b60006020820190508181036000830152614ef681614eba565b9050919050565b7f5361666545524332303a204552433230206f7065726174696f6e20646964206e60008201527f6f74207375636365656400000000000000000000000000000000000000000000602082015250565b6000614f59602a83613e12565b9150614f6482614efd565b604082019050919050565b60006020820190508181036000830152614f8881614f4c565b9050919050565b6000819050919050565b6000614fb4614faf614faa84614f8f565b613d69565b6133dd565b9050919050565b614fc481614f99565b82525050565b600060a082019050614fdf60008301886138eb565b614fec602083018761381d565b614ff96040830186614fbb565b61500660608301856141b4565b61501360808301846138eb565b969550505050505056fe608060405234801561001057600080fd5b50610b4d806100206000396000f3fe60806040526004361061004e5760003560e01c806317d70f7c146100675780633c130d90146100925780634a0687ef146100bd578063767ab122146100e65780639d76ea581461010f5761005d565b3661005d5761005b61013a565b005b61006561013a565b005b34801561007357600080fd5b5061007c610154565b604051610089919061050c565b60405180910390f35b34801561009e57600080fd5b506100a761015a565b6040516100b491906105c0565b60405180910390f35b3480156100c957600080fd5b506100e460048036038101906100df9190610654565b610204565b005b3480156100f257600080fd5b5061010d600480360381019061010891906107e2565b6102fe565b005b34801561011b57600080fd5b5061012461047c565b60405161013191906108b6565b60405180910390f35b6101426104a2565b61015261014d6104a4565b6104cd565b565b60205481565b6060602160009054906101000a900473ffffffffffffffffffffffffffffffffffffffff1673ffffffffffffffffffffffffffffffffffffffff1663c87b56dd6020546040518263ffffffff1660e01b81526004016101b9919061050c565b600060405180830381865afa1580156101d6573d6000803e3d6000fd5b505050506040513d6000823e3d601f19601f820116820180604052508101906101ff9190610941565b905090565b600073ffffffffffffffffffffffffffffffffffffffff168173ffffffffffffffffffffffffffffffffffffffff16141561026b576040517fd92e233d00000000000000000000000000000000000000000000000000000000815260040160405180910390fd5b600073ffffffffffffffffffffffffffffffffffffffff1661028b6104a4565b73ffffffffffffffffffffffffffffffffffffffff16146102d8576040517f5daa87a000000000000000000000000000000000000000000000000000000000815260040160405180910390fd5b807f360894a13ba1a3210667c828492db98dca3e2076cc3735a920a3ca505d382bbc5550565b8260208190555081602160006101000a81548173ffffffffffffffffffffffffffffffffffffffff021916908373ffffffffffffffffffffffffffffffffffffffff1602179055503073ffffffffffffffffffffffffffffffffffffffff166342fe098060008089896040518563ffffffff1660e01b81526004016103869493929190610a31565b600060405180830381600087803b1580156103a057600080fd5b505af11580156103b4573d6000803e3d6000fd5b505050503073ffffffffffffffffffffffffffffffffffffffff1663c68d42838286600067ffffffffffffffff8111156103f1576103f061068b565b5b6040519080825280601f01601f1916602001820160405280156104235781602001600182028036833780820191505090505b506040518463ffffffff1660e01b815260040161044293929190610ad9565b600060405180830381600087803b15801561045c57600080fd5b505af1158015610470573d6000803e3d6000fd5b50505050505050505050565b602160009054906101000a900473ffffffffffffffffffffffffffffffffffffffff1681565b565b60007f360894a13ba1a3210667c828492db98dca3e2076cc3735a920a3ca505d382bbc54905090565b3660008037600080366000845af43d6000803e80600081146104ee573d6000f35b3d6000fd5b6000819050919050565b610506816104f3565b82525050565b600060208201905061052160008301846104fd565b92915050565b600081519050919050565b600082825260208201905092915050565b60005b83811015610561578082015181840152602081019050610546565b83811115610570576000848401525b50505050565b6000601f19601f8301169050919050565b600061059282610527565b61059c8185610532565b93506105ac818560208601610543565b6105b581610576565b840191505092915050565b600060208201905081810360008301526105da8184610587565b905092915050565b6000604051905090565b600080fd5b600080fd5b600073ffffffffffffffffffffffffffffffffffffffff82169050919050565b6000610621826105f6565b9050919050565b61063181610616565b811461063c57600080fd5b50565b60008135905061064e81610628565b92915050565b60006020828403121561066a576106696105ec565b5b60006106788482850161063f565b91505092915050565b600080fd5b600080fd5b7f4e487b7100000000000000000000000000000000000000000000000000000000600052604160045260246000fd5b6106c382610576565b810181811067ffffffffffffffff821117156106e2576106e161068b565b5b80604052505050565b60006106f56105e2565b905061070182826106ba565b919050565b600067ffffffffffffffff8211156107215761072061068b565b5b61072a82610576565b9050602081019050919050565b82818337600083830152505050565b600061075961075484610706565b6106eb565b90508281526020810184848401111561077557610774610686565b5b610780848285610737565b509392505050565b600082601f83011261079d5761079c610681565b5b81356107ad848260208601610746565b91505092915050565b6107bf816104f3565b81146107ca57600080fd5b50565b6000813590506107dc816107b6565b92915050565b60008060008060008060c087890312156107ff576107fe6105ec565b5b600087013567ffffffffffffffff81111561081d5761081c6105f1565b5b61082989828a01610788565b965050602087013567ffffffffffffffff81111561084a576108496105f1565b5b61085689828a01610788565b955050604061086789828a016107cd565b945050606061087889828a016107cd565b935050608061088989828a0161063f565b92505060a061089a89828a0161063f565b9150509295509295509295565b6108b081610616565b82525050565b60006020820190506108cb60008301846108a7565b92915050565b60006108e46108df84610706565b6106eb565b905082815260208101848484011115610900576108ff610686565b5b61090b848285610543565b509392505050565b600082601f83011261092857610927610681565b5b81516109388482602086016108d1565b91505092915050565b600060208284031215610957576109566105ec565b5b600082015167ffffffffffffffff811115610975576109746105f1565b5b61098184828501610913565b91505092915050565b6000819050919050565b60006109af6109aa6109a5846105f6565b61098a565b6105f6565b9050919050565b60006109c182610994565b9050919050565b60006109d3826109b6565b9050919050565b6109e3816109c8565b82525050565b6000819050919050565b600060ff82169050919050565b6000610a1b610a16610a11846109e9565b61098a565b6109f3565b9050919050565b610a2b81610a00565b82525050565b6000608082019050610a4660008301876109da565b610a536020830186610a22565b8181036040830152610a658185610587565b90508181036060830152610a798184610587565b905095945050505050565b600081519050919050565b600082825260208201905092915050565b6000610aab82610a84565b610ab58185610a8f565b9350610ac5818560208601610543565b610ace81610576565b840191505092915050565b6000606082019050610aee60008301866108a7565b610afb60208301856104fd565b8181036040830152610b0d8184610aa0565b905094935050505056fea26469706673582212201d0d0de4dd2a9e9558b92ba6d8b48da3d259aaa947857984b97cfd5fd60762b764736f6c634300080a0033a26469706673582212208e782df9b82ddbbfe4d0e4d672a2b9b6073512a9ac1e56c6c69a9ed1e9fb5ff964736f6c634300080a0033",
  "linkReferences": {},
  "deployedLinkReferences": {}
}